:100000006F00A03700000000F6030000F4030000BA
:1000100000000000000000000000000000000000E0
:1000200000000000000000000000000000000000D0
:10003000F403000000000000F403000000000000D2
:10004000F4030000F4030000F4030000F4030000D4
:10005000F4030000F4030000F4030000F4030000C4
:10006000F4030000F4030000F4030000F4030000B4
:10007000F4030000F4030000F4030000F4030000A4
:10008000E2070000F4030000F4030000F4030000A2
:10009000F4030000F4030000F4030000000000007B
:1000A000634E050263C305042E86AA857D5515C2DD
:1000B00085466378B6006356C00006068606E36C84
:1000C000B6FE014563E4C500918D558D858205829C
:1000D000F5FA82808682C93F2E8582823305A04050
:1000E0006347B000B305B040C1B7B305B0408682E6
:1000F000653F3305A0408282868263C7050063495D
:1001000005005D372E858282B305B040E35B05FEB6
:100110003305A040513F3305B040828200003111C9
:1001200026C406C822C6AE84AA87B28599C60143F2
:1001300063D79600B684054319A00143A68633848D
:10014000964063530400014422863A853EC21AC099
:100150004521024392472A87B30685000146B385AD
:10016000C4406342B00463D304008144B385960065
:100170003385E540630403026372B7029307A0026C
:10018000A38FF5FE9386F5FF637AD700238FF5FEE4
:100190009386E5FF6374D700A38EF5FEC240324418
:1001A000A24451018280B385C70003C50500B38511
:1001B000C60005062380A5005DB7011106CE22CC3E
:1001C00026CA02C02A836357050089E685473303A0
:1001D000A0403EC0058A1304100619C2130410047F
:1001E000BA8459141A853AC81AC22EC61AC4DD3503
:1001F000A5472243B24542479376F50F63E1A70630
:100200009386060393F6F60F938714002380D40099
:100210001A853AC83EC62EC4413D9246A245B24711
:1002200042472A8363FBB602824699C69306D002F0
:100230002380D700938724003385E7409356F50148
:10024000AA962380070085860146FD17634BD600DA
:10025000F2406244D24405618280BE8461B7A296B6
:1002600055B7B305C70083C2070003C305000506E1
:100270002380550023806700C9BFB70700E093873C
:10028000470F9C438280011122CC06CE26CA2AC089
:1002900002C82E84F9E1B70700E09387470F9C431B
:1002A00089C793F7070891E3C93FF240228562446A
:1002B000D24405618280B30694401D46368763535D
:1002C000D6001D473776020013061610832503005B
:1002D00013F505083DED81C91AC63AC436C2713F0F
:1002E00032432247924693A63600014699E213060E
:1002F000D7FF8247938534000808BE951AC43AC2D6
:10030000092642468247B70600E0224312479386F9
:10031000860F90C28D453386970081468342060042
:100320008506938706013385270023005500630562
:10033000D7000506E394B6FE9306470093E606F859
:100340002308D100C246BA942320D300E3C584F623
:10035000A9BF7D1625FE268489BF370300E08144AE
:100360001303430FE5B7511122C206C42E84213F67
:10037000A24022851244310182809701002093819E
:1003800061481381010013050008731005308D4684
:1003900017050000130505C7558D73105530170557
:1003A0000020130525C69385818201466356B5005A
:1003B00010C11105E34EB5FE170500001305C54930
:1003C00097050020938505C417060020130686C3F1
:1003D0006388C500144194C111059105E39AC5FED7
:1003E000B7F700E0154798C39307006D7390173473
:1003F0007300203001A0371702401C47B706800069
:10040000D58F1CC7AA8703C7070001E73385A7401C
:1004100082808507CDBF130141FAA2CAA6C886CC47
:100420002AC02EC23284B68402CA834704009306CF
:100430001400A30FF10081EBE64056445245C64438
:100440001301C105828036C6130750026380E7029C
:100450001246824785451305F1018297B24626C4AC
:100460003684D247A244AA973ECAC1B703471400B4
:100470001306000393060003A30FE10032C693079F
:1004800024006312D7083E8481468147A54511A800
:10049000139727000504BA970347F4FF8607B2971E
:1004A0008546130607FD1375F60FE3F3A5FE99C203
:1004B000A30FE1003EC8E14663D3F60036C8130639
:1004C000C00681466318C70003470400854605043B
:1004D000A30FE1000346F101130740066305E6069A
:1004E0006367C702930780056300F60A9307300627
:1004F000630DF60A31D21246824785451305F10194
:10050000829726C4B9BF9306000236C6ADBF130753
:100510005007630AE602130780076307E60613071E
:100520003007E31AE6FC3ECC9387440084403EC487
:100530002685C93DE247AA856356F008C246324681
:10054000381826851DA0938744003EC495C613061F
:10055000B6F818109336160088400146A945B139FF
:10056000C24632463818AA850810553E1246AA855A
:10057000281882478297F5B59307500718108546CB
:10058000E30CF6FC8146C9BF8840130686FA9387C0
:1005900044001810854613361600C1453EC4313953
:1005A000C2463246AA853818C1B7938744003EC474
:1005B0009C40C2463246A30FF1003818854513050A
:1005C000F10165B7124626856DB71301C1FD32CA28
:1005D0002A862EC836CC814514081305603606C617
:1005E0003ACE3ED036C0053DB24013014102828072
:1005F0002A96AA876393C70082802380B700850765
:10060000D5BF81476313F60082803387F5008346A8
:1006100007003307F50085072300D700E5B7511120
:10062000B7770200370700E022C206C42A84938706
:1006300017101307470F144313F606080DE691C26F
:100640002D394167130707F093178400F98F370797
:1006500000E093E757081307470F1CC30545A24066
:10066000124431018280FD17F9F70145CDBFB7274C
:100670000240054798C3B71702403707080123A275
:1006800007001307170898C337079F0098C7371745
:1006900002401C4393966700E3DD06FE5C43B716F9
:1006A0000240F19B93E727005CC32147DC42B18BFA
:1006B000E39EE7FEB70700E09387870F23A00700BC
:1006C000B70700E09387470F1307000898C382809D
:1006D000130141FD22D206D426D0513FB716024065
:1006E0009C4E116713070702D98F9CCEB7170140A4
:1006F000938707409843B70610F0FD16758F98C38F
:100700009843B706900037040020558F98C398434C
:10071000B7060004558F98C3B74701403147239669
:10072000E78023980780239A07801307101A2394E1
:10073000E78003D7C7808546136707022396E780C3
:1007400037E700E02322D71003D7C7808966558F8B
:100750002396E7801306000281450A85513D37073D
:1007600000208322440083270700B70600200146AB
:10077000814593868600130500026395570419C2CC
:100780002320F70005651305458481358144B307AF
:10079000910003C507008504593593070002E398CB
:1007A000F4FE2945AD3DB7F700E09847B7E7B80537
:1007B000938707803E97B7F600E09C46998FE3CE7B
:1007C00007FE49BF3383F600034303003306B1003D
:1007D0008507230066008505FD8B0546E39FA5F888
:1007E00045B7211132C6370600202EC883254600A2
:1007F0002ACA3EC037050020B747014036C43AC276
:1008000083D647800327050093871500FD8B93F659
:10081000F60F6317F700138717007D8B2320E50081
:1008200037070020130787002E972300D7002322C5
:10083000F6005245C2453246A24612478247610140
:1008400073002030726561642025642062797465CC
:04085000733A2000D7
:00000001FF
